{
  "contractName": "SupplyChain",
  "abi": [
    {
      "inputs": [],
      "stateMutability": "nonpayable",
      "type": "constructor"
    },
    {
      "anonymous": false,
      "inputs": [
        {
          "indexed": true,
          "internalType": "address",
          "name": "owner",
          "type": "address"
        },
        {
          "indexed": true,
          "internalType": "address",
          "name": "approved",
          "type": "address"
        },
        {
          "indexed": true,
          "internalType": "uint256",
          "name": "tokenId",
          "type": "uint256"
        }
      ],
      "name": "Approval",
      "type": "event"
    },
    {
      "anonymous": false,
      "inputs": [
        {
          "indexed": true,
          "internalType": "address",
          "name": "owner",
          "type": "address"
        },
        {
          "indexed": true,
          "internalType": "address",
          "name": "operator",
          "type": "address"
        },
        {
          "indexed": false,
          "internalType": "bool",
          "name": "approved",
          "type": "bool"
        }
      ],
      "name": "ApprovalForAll",
      "type": "event"
    },
    {
      "anonymous": false,
      "inputs": [
        {
          "indexed": false,
          "internalType": "string",
          "name": "message",
          "type": "string"
        }
      ],
      "name": "LogMessage",
      "type": "event"
    },
    {
      "anonymous": false,
      "inputs": [
        {
          "indexed": true,
          "internalType": "address",
          "name": "from",
          "type": "address"
        },
        {
          "indexed": true,
          "internalType": "address",
          "name": "to",
          "type": "address"
        },
        {
          "indexed": true,
          "internalType": "uint256",
          "name": "tokenId",
          "type": "uint256"
        }
      ],
      "name": "Transfer",
      "type": "event"
    },
    {
      "inputs": [
        {
          "internalType": "address",
          "name": "to",
          "type": "address"
        },
        {
          "internalType": "uint256",
          "name": "tokenId",
          "type": "uint256"
        }
      ],
      "name": "approve",
      "outputs": [],
      "stateMutability": "nonpayable",
      "type": "function"
    },
    {
      "inputs": [
        {
          "internalType": "address",
          "name": "owner",
          "type": "address"
        }
      ],
      "name": "balanceOf",
      "outputs": [
        {
          "internalType": "uint256",
          "name": "",
          "type": "uint256"
        }
      ],
      "stateMutability": "view",
      "type": "function",
      "constant": true
    },
    {
      "inputs": [
        {
          "internalType": "uint256",
          "name": "tokenId",
          "type": "uint256"
        }
      ],
      "name": "getApproved",
      "outputs": [
        {
          "internalType": "address",
          "name": "",
          "type": "address"
        }
      ],
      "stateMutability": "view",
      "type": "function",
      "constant": true
    },
    {
      "inputs": [
        {
          "internalType": "address",
          "name": "owner",
          "type": "address"
        },
        {
          "internalType": "address",
          "name": "operator",
          "type": "address"
        }
      ],
      "name": "isApprovedForAll",
      "outputs": [
        {
          "internalType": "bool",
          "name": "",
          "type": "bool"
        }
      ],
      "stateMutability": "view",
      "type": "function",
      "constant": true
    },
    {
      "inputs": [],
      "name": "name",
      "outputs": [
        {
          "internalType": "string",
          "name": "",
          "type": "string"
        }
      ],
      "stateMutability": "view",
      "type": "function",
      "constant": true
    },
    {
      "inputs": [
        {
          "internalType": "uint256",
          "name": "tokenId",
          "type": "uint256"
        }
      ],
      "name": "ownerOf",
      "outputs": [
        {
          "internalType": "address",
          "name": "",
          "type": "address"
        }
      ],
      "stateMutability": "view",
      "type": "function",
      "constant": true
    },
    {
      "inputs": [
        {
          "internalType": "address",
          "name": "from",
          "type": "address"
        },
        {
          "internalType": "address",
          "name": "to",
          "type": "address"
        },
        {
          "internalType": "uint256",
          "name": "tokenId",
          "type": "uint256"
        }
      ],
      "name": "safeTransferFrom",
      "outputs": [],
      "stateMutability": "nonpayable",
      "type": "function"
    },
    {
      "inputs": [
        {
          "internalType": "address",
          "name": "from",
          "type": "address"
        },
        {
          "internalType": "address",
          "name": "to",
          "type": "address"
        },
        {
          "internalType": "uint256",
          "name": "tokenId",
          "type": "uint256"
        },
        {
          "internalType": "bytes",
          "name": "data",
          "type": "bytes"
        }
      ],
      "name": "safeTransferFrom",
      "outputs": [],
      "stateMutability": "nonpayable",
      "type": "function"
    },
    {
      "inputs": [
        {
          "internalType": "address",
          "name": "operator",
          "type": "address"
        },
        {
          "internalType": "bool",
          "name": "approved",
          "type": "bool"
        }
      ],
      "name": "setApprovalForAll",
      "outputs": [],
      "stateMutability": "nonpayable",
      "type": "function"
    },
    {
      "inputs": [
        {
          "internalType": "bytes4",
          "name": "interfaceId",
          "type": "bytes4"
        }
      ],
      "name": "supportsInterface",
      "outputs": [
        {
          "internalType": "bool",
          "name": "",
          "type": "bool"
        }
      ],
      "stateMutability": "view",
      "type": "function",
      "constant": true
    },
    {
      "inputs": [],
      "name": "symbol",
      "outputs": [
        {
          "internalType": "string",
          "name": "",
          "type": "string"
        }
      ],
      "stateMutability": "view",
      "type": "function",
      "constant": true
    },
    {
      "inputs": [
        {
          "internalType": "uint256",
          "name": "tokenId",
          "type": "uint256"
        }
      ],
      "name": "tokenURI",
      "outputs": [
        {
          "internalType": "string",
          "name": "",
          "type": "string"
        }
      ],
      "stateMutability": "view",
      "type": "function",
      "constant": true
    },
    {
      "inputs": [
        {
          "internalType": "address",
          "name": "from",
          "type": "address"
        },
        {
          "internalType": "address",
          "name": "to",
          "type": "address"
        },
        {
          "internalType": "uint256",
          "name": "tokenId",
          "type": "uint256"
        }
      ],
      "name": "transferFrom",
      "outputs": [],
      "stateMutability": "nonpayable",
      "type": "function"
    },
    {
      "inputs": [
        {
          "internalType": "string",
          "name": "_name",
          "type": "string"
        },
        {
          "internalType": "string",
          "name": "_origin",
          "type": "string"
        },
        {
          "internalType": "uint256",
          "name": "_productionDate",
          "type": "uint256"
        },
        {
          "internalType": "string",
          "name": "_rawMaterialInfo",
          "type": "string"
        },
        {
          "internalType": "string",
          "name": "_certifications",
          "type": "string"
        },
        {
          "internalType": "string",
          "name": "_productDescription",
          "type": "string"
        },
        {
          "internalType": "string",
          "name": "location",
          "type": "string"
        },
        {
          "internalType": "uint256",
          "name": "timestamp",
          "type": "uint256"
        },
        {
          "internalType": "uint256",
          "name": "temperature",
          "type": "uint256"
        },
        {
          "internalType": "uint256",
          "name": "humidity",
          "type": "uint256"
        },
        {
          "internalType": "address",
          "name": "supplier",
          "type": "address"
        },
        {
          "internalType": "string",
          "name": "_nftId",
          "type": "string"
        }
      ],
      "name": "createProduct",
      "outputs": [],
      "stateMutability": "nonpayable",
      "type": "function"
    },
    {
      "inputs": [
        {
          "internalType": "address",
          "name": "_userAddress",
          "type": "address"
        },
        {
          "internalType": "string",
          "name": "_password",
          "type": "string"
        },
        {
          "internalType": "string",
          "name": "_userType",
          "type": "string"
        }
      ],
      "name": "verifyLogin",
      "outputs": [
        {
          "internalType": "bool",
          "name": "",
          "type": "bool"
        }
      ],
      "stateMutability": "view",
      "type": "function",
      "constant": true
    },
    {
      "inputs": [
        {
          "internalType": "uint256",
          "name": "_productId",
          "type": "uint256"
        }
      ],
      "name": "getProductDetails",
      "outputs": [
        {
          "components": [
            {
              "internalType": "uint256",
              "name": "productId",
              "type": "uint256"
            },
            {
              "internalType": "string",
              "name": "name",
              "type": "string"
            },
            {
              "internalType": "string",
              "name": "origin",
              "type": "string"
            },
            {
              "internalType": "uint256",
              "name": "productionDate",
              "type": "uint256"
            },
            {
              "internalType": "address",
              "name": "supplier",
              "type": "address"
            },
            {
              "internalType": "address",
              "name": "manufacturer",
              "type": "address"
            },
            {
              "internalType": "address",
              "name": "distributor",
              "type": "address"
            },
            {
              "internalType": "address",
              "name": "pharmacy",
              "type": "address"
            },
            {
              "internalType": "address",
              "name": "user",
              "type": "address"
            },
            {
              "internalType": "string",
              "name": "nftId",
              "type": "string"
            },
            {
              "internalType": "string",
              "name": "rawMaterialInfo",
              "type": "string"
            },
            {
              "internalType": "string",
              "name": "certifications",
              "type": "string"
            },
            {
              "internalType": "string",
              "name": "productDescription",
              "type": "string"
            }
          ],
          "internalType": "struct SupplyChain.Product",
          "name": "",
          "type": "tuple"
        }
      ],
      "stateMutability": "view",
      "type": "function",
      "constant": true
    },
    {
      "inputs": [
        {
          "internalType": "uint256",
          "name": "_productId",
          "type": "uint256"
        },
        {
          "internalType": "string",
          "name": "recorded",
          "type": "string"
        }
      ],
      "name": "getParameterDetails",
      "outputs": [
        {
          "components": [
            {
              "internalType": "uint256",
              "name": "productId",
              "type": "uint256"
            },
            {
              "internalType": "string",
              "name": "location",
              "type": "string"
            },
            {
              "internalType": "uint256",
              "name": "timestamp",
              "type": "uint256"
            },
            {
              "internalType": "uint256",
              "name": "temperature",
              "type": "uint256"
            },
            {
              "internalType": "uint256",
              "name": "humidity",
              "type": "uint256"
            },
            {
              "internalType": "string",
              "name": "recordedBy",
              "type": "string"
            }
          ],
          "internalType": "struct SupplyChain.Parameters",
          "name": "",
          "type": "tuple"
        }
      ],
      "stateMutability": "view",
      "type": "function",
      "constant": true
    },
    {
      "inputs": [
        {
          "internalType": "address",
          "name": "_userAddress",
          "type": "address"
        }
      ],
      "name": "getUserDetails",
      "outputs": [
        {
          "components": [
            {
              "internalType": "address",
              "name": "userAddress",
              "type": "address"
            },
            {
              "internalType": "string",
              "name": "name",
              "type": "string"
            },
            {
              "internalType": "string",
              "name": "password",
              "type": "string"
            },
            {
              "internalType": "string",
              "name": "userType",
              "type": "string"
            }
          ],
          "internalType": "struct SupplyChain.User",
          "name": "",
          "type": "tuple"
        }
      ],
      "stateMutability": "view",
      "type": "function",
      "constant": true
    },
    {
      "inputs": [
        {
          "internalType": "address",
          "name": "_userAddress",
          "type": "address"
        },
        {
          "internalType": "string",
          "name": "_name",
          "type": "string"
        },
        {
          "internalType": "string",
          "name": "password",
          "type": "string"
        },
        {
          "internalType": "string",
          "name": "userType",
          "type": "string"
        }
      ],
      "name": "createUser",
      "outputs": [],
      "stateMutability": "nonpayable",
      "type": "function"
    },
    {
      "inputs": [
        {
          "internalType": "uint256",
          "name": "_productId",
          "type": "uint256"
        },
        {
          "internalType": "string",
          "name": "_location",
          "type": "string"
        },
        {
          "internalType": "uint256",
          "name": "_timestamp",
          "type": "uint256"
        },
        {
          "internalType": "uint256",
          "name": "_temperature",
          "type": "uint256"
        },
        {
          "internalType": "uint256",
          "name": "_humidity",
          "type": "uint256"
        },
        {
          "internalType": "string",
          "name": "updatedBy",
          "type": "string"
        }
      ],
      "name": "updateProductParameters",
      "outputs": [],
      "stateMutability": "nonpayable",
      "type": "function"
    },
    {
      "inputs": [
        {
          "internalType": "address",
          "name": "user",
          "type": "address"
        }
      ],
      "name": "getProductsOfUser",
      "outputs": [
        {
          "internalType": "string",
          "name": "",
          "type": "string"
        }
      ],
      "stateMutability": "view",
      "type": "function",
      "constant": true
    },
    {
      "inputs": [
        {
          "internalType": "uint256",
          "name": "_tokenId",
          "type": "uint256"
        }
      ],
      "name": "checkNFTOwner",
      "outputs": [
        {
          "internalType": "address",
          "name": "",
          "type": "address"
        }
      ],
      "stateMutability": "view",
      "type": "function",
      "constant": true
    },
    {
      "inputs": [
        {
          "internalType": "uint256",
          "name": "_productId",
          "type": "uint256"
        },
        {
          "internalType": "address",
          "name": "_to",
          "type": "address"
        }
      ],
      "name": "transferProductOwnership",
      "outputs": [],
      "stateMutability": "nonpayable",
      "type": "function"
    }
  ],
  "bytecode": "0x60806040523480156200001157600080fd5b50604080518082018252600a815269141c9bd91d58dd13919560b21b6020808301918252835180850190945260048452631413919560e21b90840152815191929162000060916000916200007f565b508051620000769060019060208401906200007f565b50505062000162565b8280546200008d9062000125565b90600052602060002090601f016020900481019282620000b15760008555620000fc565b82601f10620000cc57805160ff1916838001178555620000fc565b82800160010185558215620000fc579182015b82811115620000fc578251825591602001919060010190620000df565b506200010a9291506200010e565b5090565b5b808211156200010a57600081556001016200010f565b6002810460018216806200013a57607f821691505b602082108114156200015c57634e487b7160e01b600052602260045260246000fd5b50919050565b61325680620001726000396000f3fe608060405234801561001057600080fd5b506004361061012d5760003560e01c80636c992e92116100b35780636c992e921461023757806370a082311461024a57806386b0e8121461026a57806395d89b411461027d578063a22cb46514610285578063b2f4711314610298578063b88d4fde146102ab578063c1f41712146102be578063c610d2ce146102de578063c87b56dd146102f1578063cc3d967b14610304578063e985e9c5146103245761012d565b806301ffc9a71461013257806306fdde031461015b578063081812fc14610170578063095ea7b314610190578063141c5167146101a557806323b872dd146101b85780632692c7ae146101cb5780633098a765146101de57806342842e0e146101f15780636352211e146102045780636813b53b14610217575b600080fd5b61014561014036600461266c565b610337565b6040516101529190612b07565b60405180910390f35b61016361037f565b6040516101529190612b12565b61018361017e36600461281e565b610411565b6040516101529190612ab6565b6101a361019e366004612643565b610438565b005b6101636101b3366004612412565b6104d9565b6101a36101c636600461245e565b61056b565b6101a36101d936600461289c565b6105a3565b6101a36101ec3660046126a4565b6106fe565b6101a36101ff36600461245e565b610a19565b61018361021236600461281e565b610a34565b61022a61022536600461281e565b610a68565b6040516101529190612fc3565b61014561024536600461254b565b610e5e565b61025d610258366004612412565b610f36565b604051610152919061315d565b6101a3610278366004612836565b610f7a565b610163610feb565b6101a3610293366004612511565b610ffa565b6101836102a636600461281e565b61100c565b6101a36102b9366004612499565b611018565b6102d16102cc366004612858565b611057565b6040516101529190612f59565b6101a36102ec3660046125bb565b6113f4565b6101636102ff36600461281e565b6114b7565b610317610312366004612412565b6115bc565b60405161015291906130f3565b61014561033236600461242c565b611993565b60006001600160e01b031982166380ac58cd60e01b148061036857506001600160e01b03198216635b5e139f60e01b145b806103775750610377826119c1565b90505b919050565b60606000805461038e90613192565b80601f01602080910402602001604051908101604052809291908181526020018280546103ba90613192565b80156104075780601f106103dc57610100808354040283529160200191610407565b820191906000526020600020905b8154815290600101906020018083116103ea57829003601f168201915b5050505050905090565b600061041c826119da565b506000908152600460205260409020546001600160a01b031690565b600061044382610a34565b9050806001600160a01b0316836001600160a01b031614156104805760405162461bcd60e51b815260040161047790612ebb565b60405180910390fd5b806001600160a01b0316610492611a02565b6001600160a01b031614806104ae57506104ae81610332611a02565b6104ca5760405162461bcd60e51b815260040161047790612efc565b6104d48383611a06565b505050565b60608060005b6104e96007611a74565b81101561056457836001600160a01b03166105038261100c565b6001600160a01b03161415610552578161051c82611a78565b6000838152600b602090815260409182902091516105409493926001019101612a05565b60405160208183030381529060405291505b8061055c816131cd565b9150506104df565b5092915050565b61057c610576611a02565b82611b22565b6105985760405162461bcd60e51b815260040161047790612b25565b6104d4838383611b80565b6000868152600b60205260409020600501546001600160a01b03163314806105e457506000868152600b60205260409020600601546001600160a01b031633145b8061060857506000868152600b60205260409020600701546001600160a01b031633145b8061062c57506000868152600b60205260409020600801546001600160a01b031633145b6106485760405162461bcd60e51b815260040161047790612d43565b6106526009611cbd565b600061065e6009611a74565b6040805160c08101825289815260208082018a81528284018a9052606083018990526080830188905260a083018790526000858152600c835293909320825181559251805194955091936106b892600185019201906121d2565b5060408201516002820155606082015160038201556080820151600482015560a082015180516106f29160058401916020909101906121d2565b50505050505050505050565b600061070a6007611a74565b9050604051806101a001604052808281526020018e81526020018d81526020018c8152602001846001600160a01b03168152602001336001600160a01b0316815260200160006001600160a01b0316815260200160006001600160a01b0316815260200160006001600160a01b031681526020018381526020018b81526020018a815260200189815250600b60008381526020019081526020016000206000820151816000015560208201518160010190805190602001906107cd9291906121d2565b50604082015180516107e99160028401916020909101906121d2565b506060820151600382015560808201516004820180546001600160a01b03199081166001600160a01b039384161790915560a0840151600584018054831691841691909117905560c0840151600684018054831691841691909117905560e084015160078401805483169184169190911790556101008401516008840180549092169216919091179055610120820151805161088f9160098401916020909101906121d2565b5061014082015180516108ac91600a8401916020909101906121d2565b5061016082015180516108c991600b8401916020909101906121d2565b5061018082015180516108e691600c8401916020909101906121d2565b509050506108f43382611cc6565b610931816040518060400160405280601b81526020017a68747470733a2f2f6c6f63616c686f73743a353530302f6e66742f60281b815250611ce0565b61093b6007611cbd565b60006109476009611a74565b6040805160c08101825284815260208082018c81528284018c9052606083018b9052608083018a905283518085018552600c8082526b36b0b73ab330b1ba3ab932b960a11b8285015260a0850191909152600086815290835293909320825181559251805194955091936109c192600185019201906121d2565b5060408201516002820155606082015160038201556080820151600482015560a082015180516109fb9160058401916020909101906121d2565b50905050610a096009611cbd565b5050505050505050505050505050565b6104d483838360405180602001604052806000815250611018565b600080610a4083611d24565b90506001600160a01b0381166103775760405162461bcd60e51b815260040161047790612e89565b610a70612256565b600b6000838152602001908152602001600020604051806101a001604052908160008201548152602001600182018054610aa990613192565b80601f0160208091040260200160405190810160405280929190818152602001828054610ad590613192565b8015610b225780601f10610af757610100808354040283529160200191610b22565b820191906000526020600020905b815481529060010190602001808311610b0557829003601f168201915b50505050508152602001600282018054610b3b90613192565b80601f0160208091040260200160405190810160405280929190818152602001828054610b6790613192565b8015610bb45780601f10610b8957610100808354040283529160200191610bb4565b820191906000526020600020905b815481529060010190602001808311610b9757829003601f168201915b50505091835250506003820154602082015260048201546001600160a01b0390811660408301526005830154811660608301526006830154811660808301526007830154811660a083015260088301541660c082015260098201805460e090920191610c1f90613192565b80601f0160208091040260200160405190810160405280929190818152602001828054610c4b90613192565b8015610c985780601f10610c6d57610100808354040283529160200191610c98565b820191906000526020600020905b815481529060010190602001808311610c7b57829003601f168201915b50505050508152602001600a82018054610cb190613192565b80601f0160208091040260200160405190810160405280929190818152602001828054610cdd90613192565b8015610d2a5780601f10610cff57610100808354040283529160200191610d2a565b820191906000526020600020905b815481529060010190602001808311610d0d57829003601f168201915b50505050508152602001600b82018054610d4390613192565b80601f0160208091040260200160405190810160405280929190818152602001828054610d6f90613192565b8015610dbc5780601f10610d9157610100808354040283529160200191610dbc565b820191906000526020600020905b815481529060010190602001808311610d9f57829003601f168201915b50505050508152602001600c82018054610dd590613192565b80601f0160208091040260200160405190810160405280929190818152602001828054610e0190613192565b8015610e4e5780601f10610e2357610100808354040283529160200191610e4e565b820191906000526020600020905b815481529060010190602001808311610e3157829003601f168201915b5050505050815250509050919050565b6000805b610e6c600a611a74565b811015610f29578280519060200120600d6000838152602001908152602001600020600301604051610e9e9190612967565b6040518091039020148015610ecc57506000818152600d60205260409020546001600160a01b038681169116145b8015610f0857508380519060200120600d6000838152602001908152602001600020600201604051610efe9190612967565b6040518091039020145b15610f17576001915050610f2f565b80610f21816131cd565b915050610e62565b50600090505b9392505050565b60006001600160a01b038216610f5e5760405162461bcd60e51b815260040161047790612dbd565b506001600160a01b031660009081526003602052604090205490565b610f838261100c565b6001600160a01b0316336001600160a01b031614610fb35760405162461bcd60e51b815260040161047790612b72565b336001600160a01b0382161415610fdc5760405162461bcd60e51b815260040161047790612c09565b610fe7338284610a19565b5050565b60606001805461038e90613192565b610fe7611005611a02565b8383611d3f565b600080610f2f83610a34565b611029611023611a02565b83611b22565b6110455760405162461bcd60e51b815260040161047790612b25565b61105184848484611de2565b50505050565b61105f6122eb565b60005b61106c6009611a74565b811015611249576000818152600c6020526040902054841480156110c057508280519060200120600c60008381526020019081526020016000206005016040516110b69190612967565b6040518091039020145b1561123757600c60008281526020019081526020016000206040518060c0016040529081600082015481526020016001820180546110fd90613192565b80601f016020809104026020016040519081016040528092919081815260200182805461112990613192565b80156111765780601f1061114b57610100808354040283529160200191611176565b820191906000526020600020905b81548152906001019060200180831161115957829003601f168201915b505050505081526020016002820154815260200160038201548152602001600482015481526020016005820180546111ad90613192565b80601f01602080910402602001604051908101604052809291908181526020018280546111d990613192565b80156112265780601f106111fb57610100808354040283529160200191611226565b820191906000526020600020905b81548152906001019060200180831161120957829003601f168201915b5050505050815250509150506113ee565b80611241816131cd565b915050611062565b5060008052600c60209081526040805160c081019091527f13649b2456f1b42fef0f0040b3aaeabcd21a76a0f3f5defd4f583839455116e8805482527f13649b2456f1b42fef0f0040b3aaeabcd21a76a0f3f5defd4f583839455116e9805492939192918401916112b990613192565b80601f01602080910402602001604051908101604052809291908181526020018280546112e590613192565b80156113325780601f1061130757610100808354040283529160200191611332565b820191906000526020600020905b81548152906001019060200180831161131557829003601f168201915b5050505050815260200160028201548152602001600382015481526020016004820154815260200160058201805461136990613192565b80601f016020809104026020016040519081016040528092919081815260200182805461139590613192565b80156113e25780601f106113b7576101008083540402835291602001916113e2565b820191906000526020600020905b8154815290600101906020018083116113c557829003601f168201915b50505050508152505090505b92915050565b6113fe600a611cbd565b600061140a600a611a74565b604080516080810182526001600160a01b0388811682526020808301898152838501899052606084018890526000868152600d835294909420835181546001600160a01b031916931692909217825592518051949550919390926114759260018501929101906121d2565b50604082015180516114919160028401916020909101906121d2565b50606082015180516114ad9160038401916020909101906121d2565b5050505050505050565b60606114c2826119da565b600082815260066020526040812080546114db90613192565b80601f016020809104026020016040519081016040528092919081815260200182805461150790613192565b80156115545780601f1061152957610100808354040283529160200191611554565b820191906000526020600020905b81548152906001019060200180831161153757829003601f168201915b505050505090506000611565611e15565b90508051600014156115795750905061037a565b8151156115ab5780826040516020016115939291906129d6565b6040516020818303038152906040529250505061037a565b6115b484611e27565b949350505050565b6115c4612321565b60005b6115d1600a611a74565b8110156117f6576000818152600d60205260409020546001600160a01b03848116911614156117e4576000818152600d602090815260409182902082516080810190935280546001600160a01b03168352600181018054919284019161163690613192565b80601f016020809104026020016040519081016040528092919081815260200182805461166290613192565b80156116af5780601f10611684576101008083540402835291602001916116af565b820191906000526020600020905b81548152906001019060200180831161169257829003601f168201915b505050505081526020016002820180546116c890613192565b80601f01602080910402602001604051908101604052809291908181526020018280546116f490613192565b80156117415780601f1061171657610100808354040283529160200191611741565b820191906000526020600020905b81548152906001019060200180831161172457829003601f168201915b5050505050815260200160038201805461175a90613192565b80601f016020809104026020016040519081016040528092919081815260200182805461178690613192565b80156117d35780601f106117a8576101008083540402835291602001916117d3565b820191906000526020600020905b8154815290600101906020018083116117b657829003601f168201915b50505050508152505091505061037a565b806117ee816131cd565b9150506115c7565b5060008052600d602090815260408051608081019091527f81955a0a11e65eac625c29e8882660bae4e165a75d72780094acae8ece9a29ee80546001600160a01b031682527f81955a0a11e65eac625c29e8882660bae4e165a75d72780094acae8ece9a29ef8054929391929184019161186f90613192565b80601f016020809104026020016040519081016040528092919081815260200182805461189b90613192565b80156118e85780601f106118bd576101008083540402835291602001916118e8565b820191906000526020600020905b8154815290600101906020018083116118cb57829003601f168201915b5050505050815260200160028201805461190190613192565b80601f016020809104026020016040519081016040528092919081815260200182805461192d90613192565b801561197a5780601f1061194f5761010080835404028352916020019161197a565b820191906000526020600020905b81548152906001019060200180831161195d57829003601f168201915b50505050508152602001600382018054610dd590613192565b6001600160a01b03918216600090815260056020908152604080832093909416825291909152205460ff1690565b6001600160e01b031981166301ffc9a760e01b14919050565b6119e381611e8d565b6119ff5760405162461bcd60e51b815260040161047790612e89565b50565b3390565b600081815260046020526040902080546001600160a01b0319166001600160a01b0384169081179091558190611a3b82610a34565b6001600160a01b03167f8c5be1e5ebec7d5bd14f71427d1e84f3dd0314c0f7b2291e5b200ac8c7c3b92560405160405180910390a45050565b5490565b60606000611a8583611eaa565b60010190506000816001600160401b03811115611ab257634e487b7160e01b600052604160045260246000fd5b6040519080825280601f01601f191660200182016040528015611adc576020820181803683370190505b5090508181016020015b600019016f181899199a1a9b1b9c1cb0b131b232b360811b600a86061a8153600a8504945084611b1557611b1a565b611ae6565b509392505050565b600080611b2e83610a34565b9050806001600160a01b0316846001600160a01b03161480611b555750611b558185611993565b806115b45750836001600160a01b0316611b6e84610411565b6001600160a01b031614949350505050565b826001600160a01b0316611b9382610a34565b6001600160a01b031614611bb95760405162461bcd60e51b815260040161047790612c50565b6001600160a01b038216611bdf5760405162461bcd60e51b815260040161047790612ccc565b611bec8383836001611051565b826001600160a01b0316611bff82610a34565b6001600160a01b031614611c255760405162461bcd60e51b815260040161047790612c50565b600081815260046020908152604080832080546001600160a01b03199081169091556001600160a01b0387811680865260038552838620805460001901905590871680865283862080546001019055868652600290945282852080549092168417909155905184937fddf252ad1be2c89b69c2b068fc378daa952ba7f163c4a11628f55a4df523b3ef91a46104d48383836001611051565b80546001019055565b610fe7828260405180602001604052806000815250611f80565b611ce982611e8d565b611d055760405162461bcd60e51b815260040161047790612e06565b600082815260066020908152604090912082516104d4928401906121d2565b6000908152600260205260409020546001600160a01b031690565b816001600160a01b0316836001600160a01b03161415611d715760405162461bcd60e51b815260040161047790612d10565b6001600160a01b0383811660008181526005602090815260408083209487168084529490915290819020805460ff1916851515179055517f17307eab39ab6107e8899845ad3d59bd9653f200f220920489ca2b5937696c3190611dd5908590612b07565b60405180910390a3505050565b611ded848484611b80565b611df984848484611fb3565b6110515760405162461bcd60e51b815260040161047790612bb7565b60408051602081019091526000815290565b6060611e32826119da565b6000611e3c611e15565b90506000815111611e5c5760405180602001604052806000815250610f2f565b80611e6684611a78565b604051602001611e779291906129d6565b6040516020818303038152906040529392505050565b600080611e9983611d24565b6001600160a01b0316141592915050565b60008072184f03e93ff9f4daa797ed6e38ed64bf6a1f0160401b8310611ee95772184f03e93ff9f4daa797ed6e38ed64bf6a1f0160401b830492506040015b6904ee2d6d415b85acef8160201b8310611f13576904ee2d6d415b85acef8160201b830492506020015b662386f26fc100008310611f3157662386f26fc10000830492506010015b6305f5e1008310611f49576305f5e100830492506008015b6127108310611f5d57612710830492506004015b60648310611f6f576064830492506002015b600a83106103775760010192915050565b611f8a83836120ce565b611f976000848484611fb3565b6104d45760405162461bcd60e51b815260040161047790612bb7565b6000611fc7846001600160a01b03166121c3565b156120c357836001600160a01b031663150b7a02611fe3611a02565b8786866040518563ffffffff1660e01b81526004016120059493929190612aca565b602060405180830381600087803b15801561201f57600080fd5b505af192505050801561204f575060408051601f3d908101601f1916820190925261204c91810190612688565b60015b6120a9573d80801561207d576040519150601f19603f3d011682016040523d82523d6000602084013e612082565b606091505b5080516120a15760405162461bcd60e51b815260040161047790612bb7565b805181602001fd5b6001600160e01b031916630a85bd0160e11b1490506115b4565b506001949350505050565b6001600160a01b0382166120f45760405162461bcd60e51b815260040161047790612e54565b6120fd81611e8d565b1561211a5760405162461bcd60e51b815260040161047790612c95565b612128600083836001611051565b61213181611e8d565b1561214e5760405162461bcd60e51b815260040161047790612c95565b6001600160a01b038216600081815260036020908152604080832080546001019055848352600290915280822080546001600160a01b0319168417905551839291907fddf252ad1be2c89b69c2b068fc378daa952ba7f163c4a11628f55a4df523b3ef908290a4610fe7600083836001611051565b6001600160a01b03163b151590565b8280546121de90613192565b90600052602060002090601f0160209004810192826122005760008555612246565b82601f1061221957805160ff1916838001178555612246565b82800160010185558215612246579182015b8281111561224657825182559160200191906001019061222b565b50612252929150612352565b5090565b604051806101a001604052806000815260200160608152602001606081526020016000815260200160006001600160a01b0316815260200160006001600160a01b0316815260200160006001600160a01b0316815260200160006001600160a01b0316815260200160006001600160a01b03168152602001606081526020016060815260200160608152602001606081525090565b6040518060c001604052806000815260200160608152602001600081526020016000815260200160008152602001606081525090565b604051806080016040528060006001600160a01b031681526020016060815260200160608152602001606081525090565b5b808211156122525760008155600101612353565b60006001600160401b0380841115612381576123816131f4565b604051601f8501601f19908116603f011681019082821181831017156123a9576123a96131f4565b816040528093508581528686860111156123c257600080fd5b858560208301376000602087830101525050509392505050565b80356001600160a01b038116811461037a57600080fd5b600082601f830112612403578081fd5b610f2f83833560208501612367565b600060208284031215612423578081fd5b610f2f826123dc565b6000806040838503121561243e578081fd5b612447836123dc565b9150612455602084016123dc565b90509250929050565b600080600060608486031215612472578081fd5b61247b846123dc565b9250612489602085016123dc565b9150604084013590509250925092565b600080600080608085870312156124ae578081fd5b6124b7856123dc565b93506124c5602086016123dc565b92506040850135915060608501356001600160401b038111156124e6578182fd5b8501601f810187136124f6578182fd5b61250587823560208401612367565b91505092959194509250565b60008060408385031215612523578182fd5b61252c836123dc565b915060208301358015158114612540578182fd5b809150509250929050565b60008060006060848603121561255f578283fd5b612568846123dc565b925060208401356001600160401b0380821115612583578384fd5b61258f878388016123f3565b935060408601359150808211156125a4578283fd5b506125b1868287016123f3565b9150509250925092565b600080600080608085870312156125d0578384fd5b6125d9856123dc565b935060208501356001600160401b03808211156125f4578485fd5b612600888389016123f3565b94506040870135915080821115612615578384fd5b612621888389016123f3565b93506060870135915080821115612636578283fd5b50612505878288016123f3565b60008060408385031215612655578182fd5b61265e836123dc565b946020939093013593505050565b60006020828403121561267d578081fd5b8135610f2f8161320a565b600060208284031215612699578081fd5b8151610f2f8161320a565b6000806000806000806000806000806000806101808d8f0312156126c6578788fd5b6001600160401b038d3511156126da578788fd5b6126e78e8e358f016123f3565b9b506001600160401b0360208e01351115612700578788fd5b6127108e60208f01358f016123f3565b9a5060408d013599506001600160401b0360608e01351115612730578788fd5b6127408e60608f01358f016123f3565b98506001600160401b0360808e01351115612759578788fd5b6127698e60808f01358f016123f3565b97506001600160401b0360a08e01351115612782578687fd5b6127928e60a08f01358f016123f3565b96506001600160401b0360c08e013511156127ab578586fd5b6127bb8e60c08f01358f016123f3565b955060e08d013594506101008d013593506101208d013592506127e16101408e016123dc565b91506001600160401b036101608e013511156127fb578081fd5b61280c8e6101608f01358f016123f3565b90509295989b509295989b509295989b565b60006020828403121561282f578081fd5b5035919050565b60008060408385031215612848578182fd5b82359150612455602084016123dc565b6000806040838503121561286a578182fd5b8235915060208301356001600160401b03811115612886578182fd5b612892858286016123f3565b9150509250929050565b60008060008060008060c087890312156128b4578384fd5b8635955060208701356001600160401b03808211156128d1578586fd5b6128dd8a838b016123f3565b965060408901359550606089013594506080890135935060a0890135915080821115612907578283fd5b5061291489828a016123f3565b9150509295509295509295565b6001600160a01b03169052565b60008151808452612946816020860160208601613166565b601f01601f19169290920160200192915050565b600b60fa1b815260010190565b600080835461297581613192565b6001828116801561298d576001811461299e576129ca565b60ff198416875282870194506129ca565b8786526020808720875b858110156129c15781548a8201529084019082016129a8565b50505082870194505b50929695505050505050565b600083516129e8818460208801613166565b8351908301906129fc818360208801613166565b01949350505050565b600084516020612a188285838a01613166565b855191840191612a2b8184848a01613166565b601d60f91b920191825284546001908490612a4581613192565b8184168015612a5b5760018114612a7057612a9d565b60ff1983168786015281870185019350612a9d565b898852858820885b83811015612a93578154898201880152908601908701612a78565b5050848288010193505b505050612aa98161295a565b9998505050505050505050565b6001600160a01b0391909116815260200190565b6001600160a01b0385811682528416602082015260408101839052608060608201819052600090612afd9083018461292e565b9695505050505050565b901515815260200190565b600060208252610f2f602083018461292e565b6020808252602d908201527f4552433732313a2063616c6c6572206973206e6f7420746f6b656e206f776e6560408201526c1c881bdc88185c1c1c9bdd9959609a1b606082015260800190565b60208082526025908201527f596f7520617265206e6f7420746865206f776e6572206f6620746869732070726040820152641bd91d58dd60da1b606082015260800190565b60208082526032908201527f4552433732313a207472616e7366657220746f206e6f6e20455243373231526560408201527131b2b4bb32b91034b6b83632b6b2b73a32b960711b606082015260800190565b60208082526027908201527f596f752063616e6e6f74207472616e736665722070726f6475637420746f207960408201526637bab939b2b63360c91b606082015260800190565b60208082526025908201527f4552433732313a207472616e736665722066726f6d20696e636f72726563742060408201526437bbb732b960d91b606082015260800190565b6020808252601c908201527f4552433732313a20746f6b656e20616c7265616479206d696e74656400000000604082015260600190565b60208082526024908201527f4552433732313a207472616e7366657220746f20746865207a65726f206164646040820152637265737360e01b606082015260800190565b60208082526019908201527822a9219b99189d1030b8383937bb32903a379031b0b63632b960391b604082015260600190565b60208082526054908201527f4f6e6c79206d616e7566616374757265722c206469737472696275746f722c2060408201527f706861726d61637920616e6420757365722063616e207570646174652074656d6060820152733832b930ba3ab9329034b73337b936b0ba34b7b760611b608082015260a00190565b60208082526029908201527f4552433732313a2061646472657373207a65726f206973206e6f7420612076616040820152683634b21037bbb732b960b91b606082015260800190565b6020808252602e908201527f45524337323155524953746f726167653a2055524920736574206f66206e6f6e60408201526d32bc34b9ba32b73a103a37b5b2b760911b606082015260800190565b6020808252818101527f4552433732313a206d696e7420746f20746865207a65726f2061646472657373604082015260600190565b602080825260189082015277115490cdcc8c4e881a5b9d985b1a59081d1bdad95b88125160421b604082015260600190565b60208082526021908201527f4552433732313a20617070726f76616c20746f2063757272656e74206f776e656040820152603960f91b606082015260800190565b6020808252603d908201527f4552433732313a20617070726f76652063616c6c6572206973206e6f7420746f60408201527f6b656e206f776e6572206f7220617070726f76656420666f7220616c6c000000606082015260800190565b60006020825282516020830152602083015160c06040840152612f7f60e084018261292e565b90506040840151606084015260608401516080840152608084015160a084015260a0840151601f198483030160c0850152612fba828261292e565b95945050505050565b6000602082528251602083015260208301516101a0806040850152612fec6101c085018361292e565b91506040850151601f198086850301606087015261300a848361292e565b9350606087015160808701526080870151915061302a60a0870183612921565b60a0870151915061303e60c0870183612921565b60c0870151915061305260e0870183612921565b60e0870151915061010061306881880184612921565b870151915061012061307c87820184612921565b80880151925050610140818786030181880152613099858461292e565b9450808801519250506101608187860301818801526130b8858461292e565b9450808801519250506101808187860301818801526130d7858461292e565b908801518782039092018488015293509050612afd838261292e565b602080825282516001600160a01b0316828201528201516080604083015260009061312160a084018261292e565b90506040840151601f198085840301606086015261313f838361292e565b9250606086015191508085840301608086015250612fba828261292e565b90815260200190565b60005b83811015613181578181015183820152602001613169565b838111156110515750506000910152565b6002810460018216806131a657607f821691505b602082108114156131c757634e487b7160e01b600052602260045260246000fd5b50919050565b60006000198214156131ed57634e487b7160e01b81526011600452602481fd5b5060010190565b634e487b7160e01b600052604160045260246000fd5b6001600160e01b0319811681146119ff57600080fdfea264697066735822122057d306531b776d3c48f382217745050954a8a98aa8ded9fd7230f634838b3ca764736f6c63430008010033",
  "immutableReferences": {},
  "source": "pragma experimental ABIEncoderV2;\r\npragma solidity >=0.4.25 <0.9.0;\r\nimport \"@openzeppelin/contracts/token/ERC721/extensions/ERC721URIStorage.sol\";\r\nimport \"@openzeppelin/contracts/utils/Counters.sol\";\r\nimport \"@openzeppelin/contracts/token/ERC721/extensions/IERC721Enumerable.sol\";\r\nimport \"@openzeppelin/contracts/token/ERC721/extensions/IERC721Metadata.sol\";\r\nimport \"@openzeppelin/contracts/utils/Strings.sol\";\r\n\r\n\r\ncontract SupplyChain is ERC721URIStorage {\r\n    using Counters for Counters.Counter;\r\n    Counters.Counter private _tokenIds;\r\n    Counters.Counter private _txnIds;\r\n    Counters.Counter private _paramIds;\r\n    Counters.Counter private _userIds;\r\n    struct Product {\r\n        uint productId;\r\n        string name;\r\n        string origin;\r\n        uint productionDate;\r\n        address supplier;\r\n        address manufacturer;\r\n        address distributor;\r\n        address pharmacy;\r\n        address user;\r\n        string nftId;\r\n        string rawMaterialInfo;\r\n        string certifications;\r\n        string productDescription;\r\n    }\r\n\r\n    struct Parameters {\r\n        uint productId;\r\n        string location;\r\n        uint timestamp;\r\n        uint temperature;\r\n        uint humidity;\r\n        string recordedBy; \r\n    }\r\n\r\n    struct User {\r\n        address userAddress;\r\n        string name;\r\n        string password;\r\n        string userType;\r\n    }\r\n\r\n    mapping (uint => Product) products;\r\n    mapping (uint => Parameters) parameters;\r\n    mapping (uint => User) users;\r\n    mapping (address => uint) balances;\r\n    event LogMessage(string message);\r\n    constructor() ERC721(\"ProductNFT\", \"PNFT\") {}\r\n\r\n    function createProduct(string memory _name, string memory _origin, uint _productionDate, string memory _rawMaterialInfo, string memory _certifications, string memory _productDescription, string memory location, uint timestamp, uint temperature, uint humidity, address supplier, string memory _nftId) public {\r\n        uint newItemId = _tokenIds.current();\r\n        products[newItemId] = Product(newItemId, _name, _origin, _productionDate, supplier, msg.sender, address(0), address(0), address(0), _nftId, _rawMaterialInfo, _certifications, _productDescription);\r\n        _safeMint(msg.sender, newItemId);\r\n        _setTokenURI(newItemId, \"https://localhost:5500/nft/\");\r\n        _tokenIds.increment();\r\n        uint newParamId = _paramIds.current();\r\n        parameters[newParamId] = Parameters(newItemId, location, timestamp, temperature, humidity, \"manufacturer\");\r\n        _paramIds.increment();\r\n    }\r\n\r\n    function verifyLogin(address _userAddress, string memory _password, string memory _userType) public view returns (bool) {\r\n        for (uint i = 0; i < _userIds.current(); i++) {\r\n            if (keccak256(bytes(users[i].userType)) == keccak256(bytes(_userType)) && users[i].userAddress == _userAddress && keccak256(bytes(users[i].password)) == keccak256(bytes(_password))){\r\n                return true;\r\n            }\r\n        }\r\n        return false;\r\n    }\r\n\r\n    function getProductDetails(uint _productId) public view returns (Product memory) {\r\n        return products[_productId];\r\n    }\r\n\r\n    function getParameterDetails(uint _productId, string memory recorded) public view returns (Parameters memory) {\r\n        for (uint i = 0; i < _paramIds.current(); i++) {\r\n            if(parameters[i].productId == _productId && keccak256(bytes(parameters[i].recordedBy)) == keccak256(bytes(recorded))) {\r\n                return parameters[i];\r\n            }\r\n        }\r\n        return parameters[0];\r\n    }\r\n\r\n    function getUserDetails(address _userAddress) public view returns (User memory) {\r\n        for (uint i = 0; i < _userIds.current(); i++) {\r\n            if(users[i].userAddress == _userAddress) {\r\n                return users[i];\r\n            }\r\n        }\r\n        return users[0];\r\n    }\r\n\r\n\r\n\r\n\r\n    function createUser(address _userAddress, string memory _name, string memory password, string memory userType) public {\r\n        _userIds.increment();\r\n        uint newUserId = _userIds.current();\r\n        users[newUserId] = User(_userAddress, _name, password, userType);\r\n    }\r\n\r\n\r\n    function updateProductParameters(uint _productId, string memory _location, uint _timestamp, uint _temperature, uint _humidity, string memory updatedBy) public {\r\n        require(msg.sender == products[_productId].manufacturer || msg.sender == products[_productId].distributor || msg.sender == products[_productId].pharmacy || msg.sender == products[_productId].user, \"Only manufacturer, distributor, pharmacy and user can update temperature information\");\r\n                _paramIds.increment();\r\n        uint newParamId = _paramIds.current();\r\n        parameters[newParamId] = Parameters(_productId, _location, _timestamp, _temperature, _humidity, updatedBy);\r\n    }\r\n\r\n    function getProductsOfUser(address user) public view returns (string memory) {\r\n        string memory items;\r\n        for (uint i = 0; i < _tokenIds.current(); i++) {\r\n            if (checkNFTOwner(i) == user) {\r\n                items = string(abi.encodePacked(items, Strings.toString(i),\":\" , products[i].name, \",\"));\r\n            }\r\n        }\r\n        return items;\r\n    }\r\n\r\n    function checkNFTOwner(uint256 _tokenId) public view returns (address) {\r\n        address owner = ownerOf(_tokenId);\r\n        return owner;\r\n    }\r\n\r\n    function transferProductOwnership(uint _productId, address _to) public {\r\n        require(msg.sender == checkNFTOwner(_productId), \"You are not the owner of this product\");\r\n        require(msg.sender != _to, \"You cannot transfer product to yourself\");\r\n        safeTransferFrom(msg.sender, _to, _productId);\r\n    }\r\n}\r\n",
  "sourcePath": "C:\\Users\\Lohith Raj\\OneDrive\\Desktop\\Supply Chain\\contracts\\SupplyChain.sol",
  "compiler": {
    "name": "solc",
    "version": "0.8.1+commit.df193b15.Emscripten.clang"
  },
  "schemaVersion": "3.4.13",
  "updatedAt": "2023-05-17T22:56:44.054Z",
  "networkType": "ethereum",
  "devdoc": {
    "kind": "dev",
    "methods": {
      "approve(address,uint256)": {
        "details": "See {IERC721-approve}."
      },
      "balanceOf(address)": {
        "details": "See {IERC721-balanceOf}."
      },
      "getApproved(uint256)": {
        "details": "See {IERC721-getApproved}."
      },
      "isApprovedForAll(address,address)": {
        "details": "See {IERC721-isApprovedForAll}."
      },
      "name()": {
        "details": "See {IERC721Metadata-name}."
      },
      "ownerOf(uint256)": {
        "details": "See {IERC721-ownerOf}."
      },
      "safeTransferFrom(address,address,uint256)": {
        "details": "See {IERC721-safeTransferFrom}."
      },
      "safeTransferFrom(address,address,uint256,bytes)": {
        "details": "See {IERC721-safeTransferFrom}."
      },
      "setApprovalForAll(address,bool)": {
        "details": "See {IERC721-setApprovalForAll}."
      },
      "supportsInterface(bytes4)": {
        "details": "See {IERC165-supportsInterface}."
      },
      "symbol()": {
        "details": "See {IERC721Metadata-symbol}."
      },
      "tokenURI(uint256)": {
        "details": "See {IERC721Metadata-tokenURI}."
      },
      "transferFrom(address,address,uint256)": {
        "details": "See {IERC721-transferFrom}."
      }
    },
    "version": 1
  },
  "userdoc": {
    "kind": "user",
    "methods": {},
    "version": 1
  }
}